{
  "_format": "hh-sol-artifact-1",
  "contractName": "Weed",
  "sourceName": "contracts/Weed.sol",
  "abi": [
    {
      "inputs": [],
      "stateMutability": "nonpayable",
      "type": "constructor"
    },
    {
      "inputs": [],
      "name": "Weed_FundIsNeeded",
      "type": "error"
    },
    {
      "inputs": [
        {
          "internalType": "string",
          "name": "name",
          "type": "string"
        },
        {
          "internalType": "string",
          "name": "message",
          "type": "string"
        }
      ],
      "name": "buyWeed",
      "outputs": [],
      "stateMutability": "payable",
      "type": "function"
    },
    {
      "inputs": [],
      "name": "getMemos",
      "outputs": [
        {
          "components": [
            {
              "internalType": "string",
              "name": "name",
              "type": "string"
            },
            {
              "internalType": "string",
              "name": "message",
              "type": "string"
            },
            {
              "internalType": "uint256",
              "name": "timestamp",
              "type": "uint256"
            },
            {
              "internalType": "address",
              "name": "from",
              "type": "address"
            }
          ],
          "internalType": "struct Weed.Memo[]",
          "name": "",
          "type": "tuple[]"
        }
      ],
      "stateMutability": "view",
      "type": "function"
    }
  ],
  "bytecode": "0x6080604052348015600f57600080fd5b5033600160006101000a81548173ffffffffffffffffffffffffffffffffffffffff021916908373ffffffffffffffffffffffffffffffffffffffff160217905550610ad5806100606000396000f3fe6080604052600436106100295760003560e01c8063865c51721461002e57806394e83fb214610059575b600080fd5b34801561003a57600080fd5b50610043610075565b6040516100509190610680565b60405180910390f35b610073600480360381019061006e9190610711565b610258565b005b60606000805480602002602001604051908101604052809291908181526020016000905b8282101561024f57838290600052602060002090600402016040518060800160405290816000820180546100cc906107c1565b80601f01602080910402602001604051908101604052809291908181526020018280546100f8906107c1565b80156101455780601f1061011a57610100808354040283529160200191610145565b820191906000526020600020905b81548152906001019060200180831161012857829003601f168201915b5050505050815260200160018201805461015e906107c1565b80601f016020809104026020016040519081016040528092919081815260200182805461018a906107c1565b80156101d75780601f106101ac576101008083540402835291602001916101d7565b820191906000526020600020905b8154815290600101906020018083116101ba57829003601f168201915b50505050508152602001600282015481526020016003820160009054906101000a900473ffffffffffffffffffffffffffffffffffffffff1673ffffffffffffffffffffffffffffffffffffffff1673ffffffffffffffffffffffffffffffffffffffff168152505081526020019060010190610099565b50505050905090565b60003411610292576040517f992918d300000000000000000000000000000000000000000000000000000000815260040160405180910390fd5b600160009054906101000a900473ffffffffffffffffffffffffffffffffffffffff1673ffffffffffffffffffffffffffffffffffffffff166108fc349081150290604051600060405180830381858888f193505050501580156102fa573d6000803e3d6000fd5b506000604051806080016040528086868080601f016020809104026020016040519081016040528093929190818152602001838380828437600081840152601f19601f82011690508083019250505050505050815260200184848080601f016020809104026020016040519081016040528093929190818152602001838380828437600081840152601f19601f8201169050808301925050505050505081526020014281526020013373ffffffffffffffffffffffffffffffffffffffff16815250908060018154018082558091505060019003906000526020600020906004020160009091909190915060008201518160000190816103fa91906109cd565b50602082015181600101908161041091906109cd565b506040820151816002015560608201518160030160006101000a81548173ffffffffffffffffffffffffffffffffffffffff021916908373ffffffffffffffffffffffffffffffffffffffff160217905550505050505050565b600081519050919050565b600082825260208201905092915050565b6000819050602082019050919050565b600081519050919050565b600082825260208201905092915050565b60005b838110156104d05780820151818401526020810190506104b5565b60008484015250505050565b6000601f19601f8301169050919050565b60006104f882610496565b61050281856104a1565b93506105128185602086016104b2565b61051b816104dc565b840191505092915050565b6000819050919050565b61053981610526565b82525050565b600073ffffffffffffffffffffffffffffffffffffffff82169050919050565b600061056a8261053f565b9050919050565b61057a8161055f565b82525050565b6000608083016000830151848203600086015261059d82826104ed565b915050602083015184820360208601526105b782826104ed565b91505060408301516105cc6040860182610530565b5060608301516105df6060860182610571565b508091505092915050565b60006105f68383610580565b905092915050565b6000602082019050919050565b60006106168261046a565b6106208185610475565b93508360208202850161063285610486565b8060005b8581101561066e578484038952815161064f85826105ea565b945061065a836105fe565b925060208a01995050600181019050610636565b50829750879550505050505092915050565b6000602082019050818103600083015261069a818461060b565b905092915050565b600080fd5b600080fd5b600080fd5b600080fd5b600080fd5b60008083601f8401126106d1576106d06106ac565b5b8235905067ffffffffffffffff8111156106ee576106ed6106b1565b5b60208301915083600182028301111561070a576107096106b6565b5b9250929050565b6000806000806040858703121561072b5761072a6106a2565b5b600085013567ffffffffffffffff811115610749576107486106a7565b5b610755878288016106bb565b9450945050602085013567ffffffffffffffff811115610778576107776106a7565b5b610784878288016106bb565b925092505092959194509250565b7f4e487b7100000000000000000000000000000000000000000000000000000000600052602260045260246000fd5b600060028204905060018216806107d957607f821691505b6020821081036107ec576107eb610792565b5b50919050565b7f4e487b7100000000000000000000000000000000000000000000000000000000600052604160045260246000fd5b60008190508160005260206000209050919050565b60006020601f8301049050919050565b600082821b905092915050565b6000600883026108837fffffffffffffffffffffffffffffffffffffffffffffffffffffffffffffffff82610846565b61088d8683610846565b95508019841693508086168417925050509392505050565b6000819050919050565b60006108ca6108c56108c084610526565b6108a5565b610526565b9050919050565b6000819050919050565b6108e4836108af565b6108f86108f0826108d1565b848454610853565b825550505050565b600090565b61090d610900565b6109188184846108db565b505050565b5b8181101561093c57610931600082610905565b60018101905061091e565b5050565b601f8211156109815761095281610821565b61095b84610836565b8101602085101561096a578190505b61097e61097685610836565b83018261091d565b50505b505050565b600082821c905092915050565b60006109a460001984600802610986565b1980831691505092915050565b60006109bd8383610993565b9150826002028217905092915050565b6109d682610496565b67ffffffffffffffff8111156109ef576109ee6107f2565b5b6109f982546107c1565b610a04828285610940565b600060209050601f831160018114610a375760008415610a25578287015190505b610a2f85826109b1565b865550610a97565b601f198416610a4586610821565b60005b82811015610a6d57848901518255600182019150602085019450602081019050610a48565b86831015610a8a5784890151610a86601f891682610993565b8355505b6001600288020188555050505b50505050505056fea2646970667358221220778843a25b86a1048443732db95b5461f58e31b68646989d60d1f22f54e0711c64736f6c634300081c0033",
  "linkReferences": {},
  "deployedLinkReferences": {}
}